:020000040801F1
:10000000E8E80620A9441508A9FF1408ABFF140866
:10001000ADFF1408AFFF1408B1FF14080000000082
:10002000000000000000000000000000994E0C08D5
:10003000B3FF140800000000414E0C08313D0C08CD
:1000400075471508794715087D4715088147150834
:100050008547150889471508B5FF14088D47150809
:10006000914715089547150899471508BBFF1408CF
:10007000C1FF14089D471508A1471508A547150895
:10008000A9471508AD471508B1471508B547150824
:10009000B9471508BD471508C1471508C5471508D4
:1000A000C9471508CD471508D1471508D547150884
:1000B000D9471508DD471508E1471508E547150834
:1000C000E9471508ED471508F1471508F5471508E4
:1000D000C7FF1408CDFF1408E1FF1408F9471508FD
:1000E000E7FF1408FD4715080148150805481508DD
:1000F000094815080D4815081148150800000000AA
:1001000015481508194815081D48150821481508EF
:100110002548150829481508FDFF14082D4815081D
:1001200003001508314815083548150839481508E1
:100130003D4815084148150845481508494815081F
:100140004D481508514815085548150859481508CF
:100150005D4815086148150865481508694815087F
:100160006D4815087148150875481508794815082F
:100170007D481508814815080000000000000000B7
:1001800085481508894815088D48150891481508AF
:100190009548150899481508000000000000000067
:1001A0000000000000000000090015089D48150827
:1001B000A1481508A5481508A9481508C6BA33135B
:1001C00034033403540334033403540354035403F7
:1001D0005403540354035403540354035403540367
:1001E0005403540354035403540355035403540356
:1001F0005403550354035403550354035403540345
:100200003403540B54033403340B54035403540B7E
:10021000540B540B540B540B540B540B540B540BE6
:10022000540B740B750B750B750B750B750B750BF0
:10023000750B750B740B750B750B750B750B7513B7
:10024000750B750B95137513740B74137413751369
:10025000740B741375137513741375137513751369
:10026000751395139513951395139513951395136E
:10027000951395139513951394139513951395133F
:100280009513951395139513951374137413951370
:10029000951395139513B5139513951395139513FE
:1002A00095139513B51395139513B51395139513CE
:1002B000B51B95139513951B9513B513951B9513A6
:1002C0009513951B95139513B51B95139513B51B96
:1002D000B51B9513B513B51BB513B51BB51BB513DE
:1002E000B51BB513B51BB51BB513B51B9513951BE6
:1002F00095139513951B951B95134F5307B30A93AD
:100300009423951B9513951B951B9513B513B61B3D
:10031000B51BB513B513B51BB51BB513B513B51B7D
:10032000B513B513B61BB51BB613B613B51BB61371
:10033000B61BB513B513B51B9513B513B51BB51384
:10034000B513B51BB513B513B61BB513B513B6135B
:10035000B513B513B513B613B513B513951395139C
:10036000951395139513951395139513951395134D
:10037000951395139513B51395139513B5139513FD
:10038000951395139513951395139513951395132D
:10039000951395139513951395139513951395131D
:1003A000951395139513951395139513950B950B1D
:1003B0009513950B950B950B950B9513750B750B6D
:1003C000750B750B750B750B750B750B740B750B2E
:1003D000750B740B750B750B740B540B750B540B61
:1003E000550B750B540B550B5503540B550B540300
:1003F0005403550B5403540354035403540354033C
:100400005403540354035503540354035403340353
:1004100034033403540354035403340334033403C4
:100420005403340334035403540354035503540353
:10043000540354035503550375035503331B5403E9
:10044000540B340B5403540B540B5403340B540B04
:100450003403540B340B5403340B540B5503540B1B
:10046000540B5503550B550B5403550B540B5403A8
:10047000550B550B5403550B550B5403550B340BAF
:100480003403540B3403540B540B540B540B540BC4
:10049000540B5403540B540B540B540B740B750B2B
:1004A000540B740B740B740B750B750B740B750B71
:1004B000750B7513750B75137513740B75139513F5
:1004C000940B7513950B74137413750B75137413C8
:1004D000751374137513740B7513751395139413A7
:1004E00095139513941375139513941395139513EE
:1004F00094139513951395139513951395139513BD
:100500009513951395139513741B741B7413741B17
:10051000741B741B951B951BB513B51BB61BB5132C
:10052000B51B951BB513951BB51BB51BB51BB5139B
:100530009513951BB51B9513951B951BB513951B13
:10054000B51BB513951BB51BB513951BB51BB51B7B
:10055000B513B51BB51B951BB51B9513B51B951B8B
:10056000B513951BB61B9513951B951B9513951BE2
:10057000951B951B951B95139513951B951B951313
:10058000951B951B9513B51B951B951B951BB51BB3
:10059000B61BB61BB61BB513B61BB613B51BB61BE5
:1005A000961BB513B51BB61BB61BB513B61BB61BF6
:1005B000B513951B961BB61BB51BB613B61BB51B07
:1005C000B613961BB51BB5139613B51BB51BB61BFF
:1005D000B613951BB51B9513951B951B9513951B72
:1005E000951B9513741B9413741B75139413951317
:1005F00095139513951395139513951395139513BB
:1006000095139513951395139513951395139513AA
:1006100095139513951395139513751395139513BA
:1006200075139513950B95139613961395139513B0
:10063000B50BB613B50BB5139513750B7513750B79
:1006400074137513750B7413750B750B750B750B94
:10065000740B750B550B750B740B750B740B740BBE
:10066000550B750B540B750B750B540B5503550B34
:10067000540B55035403550B550B5403550B550B95
:100680005403550B550B5403340B340B3403540BE8
:10069000540B3403340B340B5403340B540B5403FA
:1006A000340B540B3403540B340B3403540B540BE2
:1006B0005503540B550B5503750B55033403540365
:1006C0005403540B54035403550B34035503550B77
:1006D00054033503550B54035503340B540355038E
:1006E000540B54035503740B55035503540B550316
:1006F0005503540B54035503540B54035403340B48
:1007000054035403540B5403540B5503540B540B10
:100710005503550B540B750B750B740B550B750B63
:10072000540B750B740B550B740B750B7513740B05
:100730007513740B750B7513740B9513950B750B63
:1007400095137413750B74137513750B741375135C
:10075000750B741394137513740B951395139413ED
:10076000951395137413951395139413951395136B
:100770009513941395139513951395139513951B32
:100780009513951B951B751374137413741B7413B5
:1007900074137413741B9513951B951B9513951364
:1007A000B51BB613B61BB5139513951B951BB51347
:1007B000951B951B9513B513B51BB51B9513B51B51
:1007C0009513B513B51B951B9513B51B9513B61350
:1007D000B61B951BB613B61BB513B61B9613B51BEC
:1007E000B61BB513B51B9513951B9513951B951B40
:1007F0009513951B941B951BB51BB51B9513951352
:10080000951B9513951BB513B513951B9513B51330
:100810009513951BB51BB513B61BB61BB51BB61BA5
:100820009513B51BB613B51BB51BB613B613D51B65
:10083000B513B51BB613B513B51BB61BB513B5135E
:10084000B61BB513B51BB61BB613B51B951BB5135D
:10085000951B951B9513951B95139513951B951338
:100860009513951B94139513951B941B9413951B2B
:10087000941B7413741B74137513751375139513EC
:100880009513751395139513951395139513951348
:100890009513751395139513751395139513951358
:1008A0009513950B95139513950B95139613960B1E
:1008B000B6139613950B9513950B9513950B9513EE
:1008C000750B740B7513740B750B7513740B750B1B
:1008D000750B740B740B740B750B750B740B740B1D
:1008E000550B550B74035503750B740B550B7503A2
:1008F000540B740B5503540B54035503540B5503FD
:100900005403540B54033403340B54033403540B77
:1009100054033403540B54033403540B340354036F
:10092000340B54035403340B54035403340B340377
:100930003403540B54035503540B54033403340B46
:100940003403540335035403540B54035403540B1E
:1009500054035403540B54035403340B54035403EF
:10096000540B54035403550B74035403540B550395
:100970005403540B55035503540B540334035403CD
:10098000540B540B54035403550B54035403540B8E
:10099000540B740B540B5403540B750B540B540B26
:1009A000750B740B750B740B740B7513750B750B42
:1009B0007513740B750B950B9513750B75139513B8
:1009C0007513740B7413750B74137413750B741304
:1009D0009413750B75139513941395139513751341
:1009E00095139513951395139513951395139413C8
:1009F000951395139513951B95139513951B9513A7
:100A000095139513941B741374137413741B74133C
:100A10007413741B74137413741B951B9513951B1B
:100A20009513B513951BB513B613951BB5139513F5
:100A3000B51BB513951BB5139513951BB513951BD6
:100A4000951B951BB51B9513B51B9513951BB51BD6
:100A5000B513951BB51BB513951BB51BB513B51B6E
:100A6000B51B9613951B951B9513951B951B9513FD
:100A70009513B51B9513B513951B951B9513951BD6
:100A8000951B951BB51B951B9513951BB51B951BAE
:100A9000B513951B951BB513B51BB613B513B51B35
:100AA000B61BB513951BB613B61BB51BB61BB61BF1
:100AB000B51BB51BB61BB513B51BB513B51BB61BC4
:100AC000B51BB613B613951BB513B61BB51395130B
:100AD00095139513951B95139513951B951B9513BE
:100AE000951B94139513941395139513941B7513D9
:100AF0009513941B75139413951B741B9413741BFB
:100B00009513741B951395137413951395139513DF
:100B10009513951395139513951395139513951395
:100B20009513751395139513950B95139513950BB5
:100B30009513B50B951395137513750B95139513A5
:100B4000750B7513950B750B75137413750B750B6E
:100B50007513750B750B750B740B750B750B740B8F
:100B6000740B550B740B550B540B550B550B740B29
:100B70005503750B540B5403540B54035403540383
:100B8000550B54035403340B54035403340B3403F4
:100B90005403340B54033403340B54033403340B25
:100BA00054033403340B54033403540B54033403FD
:100BB000540B34033403540B540354035403540BA5
:100BC000540B5503540B340B55033403540B3403AB
:100BD0003503540B34035503540B55033403550BA1
:100BE00054035403550B55035403750B5503540319
:100BF000550B55035403540B5403340B3403540B5B
:100C0000350B550B5403540B540B540B550B540B11
:100C1000740B550B540B740B550B740B750B540B59
:100C2000740B740B550B750B7413750B750B7413D8
:100C3000750B751375139513740B7513940B95132E
:100C4000750B74137513750B741375137513941357
:100C500075137513751395139513951374139513D5
:100C60009413951394139413951395139513951347
:100C700095139513951B951395139513951395132C
:100C8000951B7413741B7413751B7413741B741BE2
:100C9000741B741B7413741B74137413741B941BD4
:100CA0009513951B951B951BB513B61B951B951B93
:100CB000B613B51B951BB51B961BB51BB513961B21
:100CC000B513B513961BB51BB513961B951BB51322
:100CD000B51BB613B51BB51B9613B51BB61BB513C9
:100CE000B61BB51B951B9513951B951BB513951B33
:100CF000941B951B9513951BB513951BB51BB51B25
:100D0000B51BB5139513B51BB51BB513951BB51BBB
:100D1000B51B9513B51BB51BB513B51BB61BB51B82
:100D2000B613B51BB51BB613B51BD613B613B51B3F
:100D3000B513B613B51BB61BB613B51BB513B61357
:100D4000B51BB61BB513B51B9513951B951B951BB2
:100D50009513951BB51B9513951B9513B513941BF4
:100D60009513951B951B941B95137513941B951345
:100D700095139513951B951395139513951395132B
:100D800094139513941B94139513741B9413741359
:100D9000741374137413741374137413741374131B
:100DA00074137513751375137413751395139513C5
:100DB0009513950B95137513950B750B751394136C
:100DC000750B9513740B750B750B750B750B7413F5
:100DD000750B740B7513740B740B740B550B550B4F
:100DE000740B750B550B740B750B7503540B740B4F
:100DF00055035403550B5503750B550B5503540BF5
:100E000034033403340B54033403540B34035303BB
:100E1000340B54033403540B54033403540B540362
:100E20003403540B34035403340B34035403540B72
:100E300034033403340B3403340B340354035403AA
:100E400054035403540B54035503540B54035503D8
:100E5000540B54035503340B54035403550B340300
:100E60005403540B55035403550B55035403540BAF
:100E700055035503540B54033403540B540B5403C0
:100E80005403540B5403550B540B540B550B540B78
:100E90005403550B750B740B540B550B740B750BDE
:100EA000750B740B550B7513740B750B7413750B55
:100EB000750B940B9513750B75139513740B951394
:100EC00075137413741375139413750B75137513CD
:100ED00094139513941395137513941395139513F5
:100EE0009513751395139513941395137513951303
:100EF0009513951B95139513951B95139513951B9A
:100F00009513741B7413951B95137413751B74132D
:100F1000751B7413941B951B7413941B7413741B0F
:100F2000741B9413741B951B95139513951BB51B7C
:100F3000B513961B9513B513B51B9513951BB51BD0
:100F4000B513951B951BB513951BB51BB613B61B97
:100F5000B51B9513B61BB51BB513B51BB613B51B47
:100F60009513951B9513B51B951B951B9513951BF9
:100F7000B51BB51BB51B951BB51BB513951B951B59
:100F8000B513951B951BB51B951B9513B51B951399
:100F9000951BB51B951B9513951B951B951BB513A1
:100FA000961BB51BB513B51BB61BD61BB513B51BCE
:100FB000B61BB613B51BB51BB613B51BB51BB513C6
:100FC000951B951B951B951B951B9513951B9513B1
:100FD000951B95139513951B951B95139513951BB1
:100FE00094139513951B9413951B95139413951BAC
:100FF0007513941B94137513951B9413951B9513DC
:1010000095139513951375137513951395139413E1
:1010100075139513951394139513751394139513D2
:101020009413951394137413741375137513741325
:101030007413741375137513750B95137513950B42
:10104000950B751395139413750B95137413750BFA
:10105000740B750B7513740B750B740B740B750B8C
:10106000540B550B750B540B750B550B7403550B2B
:10107000540B740B550B550B5403540B540B540366
:101080003403540B54033403340B54035403340B10
:1010900054033403340B54033403340B5403340328
:1010A000540B54033403540B54033403340B5403D0
:1010B0005403340B34033403540B54035403350BDF
:1010C00054033503340B54035403340B5503540BAE
:1010D000340B5403540B5403340B5403540B540378
:1010E000550B540B5403550B7403540B5503540BFD
:1010F0005403550B54033403550B54035403540B3E
:10110000540B5403540B550B54035403540B740BDE
:10111000540B750B740B540B750B540B740B750B34
:10112000750B740B7513540B750B7513740B750BD2
:1011300075137513940B7513950B95137513741321
:10114000740B7513950B74137413940B751395131B
:101150009513951395139413951375139513951370
:101160009413951395139513951395139513951B38
:1011700095139513951395139513951B951B95131F
:10118000941B7413941B941B7413751B9413741B7E
:1011900094139513941B941B941B941B9513741B0D
:1011A000941B9513751B741B951B9513951B951B11
:1011B000951B9513B51B961B9513B51BB51B951366
:1011C000B51B951BB513951BB51BB51BB513B51BEF
:1011D000B61BB51BB513B51BB51BB613B51B951BBD
:1011E000B51B951B9513951BB51B951B951BB51B27
:1011F000B513951B951BB513951B951BB51B951327
:10120000B51B951BB51BB51B951B951BB513B51BC6
:10121000951BB51B9513951BB51B951B9513B51BFE
:10122000B51B961BB513B51BB61BB613B61BB51B6A
:10123000B51BB513B51BB61BB513B51B951B951385
:10124000B51B95139513951B95139513B51B951306
:10125000951BB51B95139513B41B951B951B9513E7
:10126000941B951B95139513951B951B7413951340
:10127000951B95139513941B9413951B941394131A
:10128000951B951B94139413951B95139413951309
:10129000951395139513741395139513751375136F
:1012A00095137513951395137413741374137413A2
:1012B0005413541354135413541374137413740B9E
:1012C0007513750B9513950B9513740B750B75139F
:1012D000750B7413750B750B750B750B740B750B08
:1012E000540B740B750B750B540B540B750B750B62
:1012F000540B740B750B5403540B54035403540BCD
:10130000340B5403540B3403540B3303340B540B7E
:101310005403340B5403540B3403540B3403340B75
:10132000540B3403340B5403340B5403340B340385
:10133000340B330B33033403540B34035403540B77
:10134000540B55035403540B35035403540B34030B
:10135000550354033403550B550334035403550B01
:101360003403540354035503550B740355035503B9
:10137000540B5403540B3403540B540B55035503B3
:10138000540B540B550B540B540B550B740B540B43
:10139000750B540B540B750B740B750B740B540BB2
:1013A000750B75137413750B750B7413750B9513FF
:1013B0007513950B750B74139513740B750B7413D0
:1013C0007513740B751375137513751394139513A7
:1013D000751394137513951395139413951395130F
:1013E00095139513951395139513951395139513BD
:1013F0009513951B95139513951B95139513941B96
:1014000074137513751B9413941B7513741B741B41
:10141000941B741B75137413741B7513941B751B29
:101420007513941B941B7513741B741B941B951BD1
:10143000951B951B951BB513951BB51B9613B61BDA
:10144000B51BB61BB513B613B51BB51B9513B51B52
:10145000B51BB61BB513B61BB51BB51BB513951B3A
:10146000951B9513B51B951B9513B413951BB51BB5
:101470009513951BB51BB513951BB51BB51B951B7C
:10148000B51B95139513B51BB51B951BB51B951B6C
:10149000B513B513951BB51BB51BB513951BB51B24
:1014A0009513B51BB51BB61BB51BB61BB61BB513E9
:1014B000B513B51BB61BB513951B951B9513951B43
:1014C000951BB513951BB51BB513951B951B951B4C
:1014D000B513951B951B9513B513941B9513B51355
:1014E000951B941B9513951B94139513951B951B96
:1014F00094139513951B9513951395139513941B9E
:10150000951394139513951B941394137513941BAF
:10151000741395137413951394139513751374130F
:101520009513741374137513741374137413741361
:101530007413541353135413541354135413741334
:1015400074137413740B7513750B9513950B740B3F
:101550009513750B740B7413750B750B750B740B5E
:10156000750B740B750B750B540B750B740B5503C6
:1015700055035403550B5403540B540B5403540B91
:10158000540B34033403540B540334033403540313
:101590003403340B54033403540B54033403540303
:1015A00054033403540B34035403340B54033403F3
:1015B000330B13033403540B540334035403340325
:1015C000540B54035403350B54035403540B550369
:1015D0005403540B54035403540B5503340B54035A
:1015E0005403540B5403550B5403540B5503550B20
:1015F00054033403540B54035403540B540B54033B
:10160000540B550B5403540B540B540B550B540BE8
:10161000750B740B550B740B750B750B740B750BED
:10162000550B740B750B750B7413750B740B7513CD
:10163000940B95137513950B95137413740B9513E5
:10164000751374139413740B9513951395139413C6
:10165000951375139413951395137413951395138C
:1016600094139513951395139513951B9513951333
:10167000951B9513951B951395139513741B741B4C
:101680007413741B95137413951B941B7413951B7F
:10169000741B9413941B751B9513741B941B951B3F
:1016A0007413741B951B941B951B9413941B941318
:1016B000941B941B9513951B951BB513B51BB51B5C
:1016C000B51BB51BB613951BB51BB61BB613B51BC7
:1016D000B51BB513B61BB51BB51BB51B951B9513D9
:1016E000951BB51B951B951BB51B951BB51B951B1A
:1016F000B51BB51B951B951BB513951B9513B51BFA
:10170000B51B951B951BB5139513B51B951B951B09
:10171000B51B951B951BB513951B951BB51B951BF1
:101720009513B51B951B9513B51BB51BB513B51BB1
:10173000B51B951B9513951BB51B9513B51BB51BB9
:101740009513B51BB51B9513951B951BB513951BD1
:101750009513B51B941B9513951B9413951B95130B
:101760009513951B9413951B951B9413951B951B13
:101770009513941B951B9513941B951B951395130B
:10178000941B951395139513941B95139513951B03
:101790009513941B95139513751375139413951343
:1017A0007513741374137413741374137413741300
:1017B000541354135413540B541354135413540B01
:1017C00054135413541354137413740B7413751368
:1017D000950B750B7413750B740B7513540B750BFC
:1017E000750B540B740B750B750B750B540B750B3C
:1017F000740B750B540B540B5403540B540B5403C0
:1018000054033403340B53033403540B540B340389
:101810005403540B34033403540B3403340B540B70
:1018200034035403340B54033403540B340B330389
:101830003303340B3403340B340354035403550380
:10184000340B5503550B3403550B54035503540BFC
:10185000350B5503350B5403540B34035503540B0C
:101860003503540B54035503540B54035503540BC5
:1018700034035403550B340B54035403550B540BCE
:101880005403540B540B5503740B750B740B540B0E
:10189000740B550B740B740B550B750B7413550BA4
:1018A00075137413750B740B75137513750B750B1A
:1018B00074137513950B75139513741374137513B3
:1018C000740B951375139513941375139513951342
:1018D00095139513951375139513951395139513E8
:1018E0009513951395139513951B95139513951BA8
:1018F00095139513951B9513951B941B741B7413CB
:10190000741B741B94137513951B941B74139513FC
:10191000741B941B751B941B9413751B7513941BDC
:10192000951B9513941B951B9513751B941B951B69
:10193000951B9413951B951B951B951B951B951338
:101940009513951BB51BB61B951BB513B51BB51B86
:10195000B61BB513B51BB51BB513951B951B951B76
:101960009513951BB41BB513951BB51BB513951B90
:10197000B513B51B951BB513B51B951BB51B95135F
:10198000B51BB51BB51B951BB51B9513B51BB51327
:10199000951BB51BB51B951B9513B51BB61B951B4E
:1019A000B51BB61B9513B51B951B9513951B951B66
:1019B000951BB51BB51B951BB51BB51B951BB51B07
:1019C000951B951B9513B51B951B9513B51BB51B47
:1019D000B513B51BB51B941BB51B951BB41B9513F9
:1019E000B51B9413951B9513951B95139413951381
:1019F000951B951394139513951B94139413951B92
:101A00009513941B951394139513951B9413951389
:101A100095137413951395139513741374139413EA
:101A2000741374137413751375137513741374137B
:101A30005413741374135413541354135413540B36
:101A400054135413540B5413541374135413741326
:101A5000740B740B7513750B7513750B750B741371
:101A6000550B540B740B750B750B740B750B740BBA
:101A7000540B540B540B540B540B5403340B540B96
:101A80005403340B54033403340B5403340B340326
:101A9000540B54033403540B540334035403340BD6
:101AA0005403340B54033403540B3403330B330B00
:101AB00014033303340B3403540B34033403340B57
:101AC000340334033403540B3403540B54033403EE
:101AD00034033403340B34033503540B54035403DD
:101AE000540B35035503540B54035503550B540342
:101AF000340B540B5403540B540B550B5403540B1D
:101B0000550B540B540B540B540B750B540B740B9B
:101B1000550B750B540B750B750B550B750B75131E
:101B2000740B750B7513750B75137413750B751397
:101B30007413950B75139513740B75137513750B3F
:101B400074139513751375139513941375139513D7
:101B50007413941395139513941395139513951368
:101B60009513951394139413951395139513951337
:101B70009513951BB5139513941B741B9413941311
:101B8000951B9513941B9513941B941B7513741B31
:101B900094137513741B9413751B941B941B951B42
:101BA000941B941B7513941B941B951B9413951BEA
:101BB000951B951B941B941B9513951B951B951BAF
:101BC000951B9513951BB51BB513951BB51BB61B24
:101BD000B61BB61B951B9513951B9513951BB51B33
:101BE000B51BB513951BB51BB513951BB51B951BE5
:101BF000B513951BB51BB51BB51BB51B951BB51BAD
:101C0000B513B51BB51BB51BB51B951BB51BB51384
:101C1000B51B9513B51BB51B951BB513B51B9613BB
:101C2000B51B951B951B951B951B951B951B95131C
:101C3000951B9513B51B9513951BB5139513951B04
:101C4000B51BB513951BB51BB513B51B951B94138D
:101C5000951B9513B513B513B51B9513951BB51BA4
:101C6000B51B95139513B41B9513951B951B9413D6
:101C7000951B951B9513951B95139513951B951304
:101C8000951B9513941B951B95139513951B9513F5
:101C90007513951B751B7413941B741B74137413A9
:101CA000741374137413741374137413541374131C
:101CB000741354137413541374135413731374134D
:101CC000541354137413540B5413540B540B5413D4
:101CD00054135413540B74135413740B750B750B6A
:101CE000540B750B740B750B540B750B540B540B79
:101CF000540B540B5403540B540B540B5403540BFC
:101D0000540B540B5403540B340353035403340B3C
:101D100034035403340B340B54035403340B540373
:101D20003403540B3403340B340B330333031403E5
:101D3000340B330334033403540B34033403340BB4
:101D40003403340B34033403340B3403340B5403A3
:101D5000540B54035403540B3403340B3403340333
:101D6000540B5403540B54035503550B54035403A1
:101D70005403550B54035403540B540B5403540B8A
:101D8000550B5403540B750B540B540B750B540B20
:101D9000740B750B740B740B750B740B740B751340
:101DA000740B750B7413740B750B75137513750B1E
:101DB0007413751395137413740B751394137513AF
:101DC00095139413751395139513951394139513F5
:101DD00095139513951395139513951395139413C4
:101DE0009513951B95139513951B95139513951B9B
:101DF0009513B513951B94137413741B751B7413EF
:101E0000941B951B74139413951B951B941B941B87
:101E1000951B941B7413951B951B941B951375139D
:101E2000941B951B951B741B941B951B941B941B57
:101E30009513951B941B9513951B941B941B951B35
:101E4000941B951B9513B51BB51B951BB613B513AA
:101E5000B51BB51BB513B51B951BB51B9513B51B52
:101E6000951B951BB51BB51BB51BB51BB51BB51B32
:101E7000B51BB513B51BB51BB513B51BB51BB513FA
:101E8000B51B951B9513B51BB513951B951BB51B62
:101E9000B51BB51BB513B61BB51BB51B951BB513F1
:101EA000951BB51B951B951B941B941B9413B51B7D
:101EB000951B951B951B951BB51BB51B951BB51B42
:101EC000B5139513B51B951B951BB51B9513B51B2A
:101ED000951B951B951B951B9513941BB513951B73
:101EE000941B951BB51B9413951B951B951395136C
:101EF000941B9513951B941B9513951B941B95137D
:101F0000951395139513941B95139513951B951B7A
:101F100094139513751B74137513941B7413751315
:101F2000751B75139513741374137413541354138E
:101F300074135413541374137413741354137413C9
:101F400074137313541354137413540B5413541302
:101F5000540B54135413540B540B5413540B740B51
:101F60007413740B750B750B750B750B540B540BAD
:101F7000540B540B540B540B5403540B5403540B79
:101F8000340B5403530B540B34033403540B5403DA
:101F90003403540B34033403540B3403340B540311
:101FA0005403540B34033403330B330B3403340323
:101FB000330B330B34035403340B54033403330314
:101FC000330B3403330B33033403330B3403330B3E
:101FD0003403340B33033403340B3403340B340332
:101FE0003403340B340B3403340B340B34035403F9
:101FF000340B540B5403340B5403540B540B540B39
:10200000540B5403540B540B540B540B540B740BC0
:10201000540B540B540B540B7413540B5413740B78
:10202000540B74137413740B7413740B7413740BB8
:102030007413740B741374137413740B7413741378
:102040007513941394139513951374139513951393
:102050009513951395139513951395139513951340
:102060009513951B95139513951B9513951B951318
:10207000B51B9513941B741B7413951B7413741B5D
:102080007513941B951B7413951B9513941B741354
:10209000751B941B941B951B941B7413951B941B0D
:1020A000741B9513941B9513951B941B9513951BEB
:1020B000941B951B951B941B951B951B95139513B2
:1020C000941B951B951B951B951B951BB51BB51B51
:1020D000B51BB51B951BB51BB51BB51B951B951BE0
:1020E000B513B51BB51BB513951BB51BB51BB513A8
:1020F000B51B951BB51BB51B951BB51BB513951BC8
:10210000B51BB51BB51BB51BB51BB513B51BB51B57
:10211000951BB51B951BB513B51BB61B951B951BC6
:10212000951B951B941B951B9413941B951B951B3A
:102130009413941B951B9413951B951B951BB51B12
:10214000B51B951BB51B9513B51B951BB513B51B7F
:102150009413B51BB51B9513B51BB41B9513B51381
:10216000951BB513B51B951B9413B513951B941BA9
:10217000B5139513941B95139513941B9513951BE9
:10218000941B95139513951B951B951394139413FA
:102190009413741B941394137413741B7513941B6E
:1021A00074137413751B751374137413741354130D
:1021B0007413741354135413741354135413741367
:1021C0005413741354137413541354137413541377
:1021D000540B74135413540B54135413540B540BC7
:1021E0005413540B540B740B740B540B740B540B8F
:1021F000540B540B540B540B540B540B340B540B07
:1022000054033403540B540B5403340B340354035E
:10221000540B34035403540B34035403340B34036E
:102220005503340B34033303330B14033303130B01
:1022300034033303340B34035403340B3403330BB0
:1022400034033403330B34033403340333033403D0
:10225000340B3303340B34033403330B3403340BA8
:10226000330B34033303330B33033303340B340B9B
:102270003403340B340B340B5403540B340B54031E
:10228000540B540B540B540B540B540B540B540B56
:10229000540B540B540B540B74135413540B540B16
:1022A00054135413740B7413740B74137413741346
:1022B00074137413540B741374137413741374130E
:1022C0007413951374137413741374139413751394
:1022D0007413941394139413951394139513951BDB
:1022E00095139513951B95139513951BB513B5135E
:1022F000951B94137413741B951B9413941B951BBB
:1023000074139413951B9413951B741B9413951BB2
:10231000941B9513941B751B9513941B951B941B71
:10232000951B941B941B951B9413951B951B951B38
:10233000951B941B951B951B9513951B951B951B26
:102340009513951B951B9513951BB513951B951B05
:10235000951B951B951B951B951B9513951BB51BE5
:10236000B51BB51B9513B51BB51B9513B51BB51B3D
:10237000951BB51BB51B951BB51BB51B951BB51B3D
:10238000B51BB513951BB51BB51B951BB51BB5131D
:10239000B51B951BB61B951BB51B951B951B951B5C
:1023A000951B951BB41B951B9513941B941B9513A0
:1023B000951BB41B9513941B94139513951B9513A0
:1023C000951B951BB51BB513B51B9413951BB51B1E
:1023D0009513B51B9513B513951BB51B951BB51B15
:1023E0009513951B9513941B951BB51B9413951B67
:1023F000B51B9513951BB51B9513951B951394133E
:10240000951B951B95139513951B941B7413751BA6
:10241000941B741B9413941B74137513941B7413E3
:1024200094137413741B941375135413741354136B
:1024300054137413741354137413741374137413A4
:1024400054135413740B740B54135413740B54130C
:102450005413540B74135413540B540B5413540B44
:10246000540B540B5413540B540B540B740B540B4C
:10247000540B740B540B540B540B5403540B540B4C
:10248000540B54033403540B54033303540B3403DD
:10249000340B54033403540B34035403540B3403EC
:1024A000340B330B33033403340B33033403140B77
:1024B00033033403340B34035403340B3403340B2D
:1024C00033033403340B330B3403340B330B340337
:1024D0003303340B33033403330B34033403330B30
:1024E0003303330B340B1303130B33033303540B3A
:1024F00034035403540B3403540B540B540B540344
:10250000540B540B540B540B540B540B540B740BB3
:10251000540B740B540B5413540B740B740B741333
:10252000540B540B74137413540B7413740B740BFB
:10253000741374137413740B741374137513740B72
:102540007413741374137413751374137413741352
:10255000741374137413741395139413741B9413DA
:102560009413941B951394139413951B9513951B17
:10257000951B9413741B741B9413741B751B941B71
:10258000951B94139513951B951B9413741B751B26
:10259000941B9413951B941B951B941B9513751BEF
:1025A000941B951B951B941B951B941B941B951BAF
:1025B000941B9513951B941B951B941B941BB51B87
:1025C000951B9413B51B951BB51B951B941B941B56
:1025D0007413941B941B9413941B951B951B951BB0
:1025E000951BB51BB51BB51BB51BB51B951BB51BAB
:1025F000B51BB51BB513B51BB51BB51BB51BB51B63
:10260000951B951BB51BB51B951BB51BB51BB51BAA
:10261000B51BB613B51B951B951BB513951BB41BAA
:102620009513941B951B941B951B941B941B951B36
:10263000951BB51B951BB51B941B941BB51B941BBD
:102640009413951B941B951B951BB51B951B951BF4
:10265000B51B941B951BB51B95139513B51B951BAB
:10266000B41BB513B51BB513951BB51B951395136B
:10267000B41B951B9413951BB413951B951B9513B5
:102680009513951B941B94139513941B7413941B0F
:10269000751374139513751B94137513751B7513AC
:1026A000751B95137413741B7413741B74135413D8
:1026B0005413741354135413741354137413741362
:1026C0007413541374137413541374135413540B5A
:1026D0005413540B54135413540B7413540B5413BA
:1026E000740B540B54135413540B540B540B740BA2
:1026F000750B540B540B540B540B540B5403540BC9
:10270000540B540B540B5403540B540B3403540B01
:102710005403340B5403340B3403540B3403340389
:102720003403330B330B33031403330B34033303FE
:10273000330B34033403530B340354033303340394
:10274000340B330334033303340B33033403340BBC
:1027500033033403340B3303340B3403330B3403AC
:102760003303330B13031303130B3403340B3303FF
:10277000530B540B3403540B340B540B540B340BCA
:10278000540B540B540B540B540B540B540B540B51
:10279000540B540B7413740B540B5413740B7413A9
:1027A0007413740B741374135413740B7413541341
:1027B0005413540B74137413741374137513741328
:1027C000941375137513941395137513741394134D
:1027D0007413741374137413741B741374137513B8
:1027E000741B9413751B9413941B951B94139413CF
:1027F000741B741B7513941B7413751B951B941316
:10280000951B951B741B9513951B941B9413951B7B
:10281000741B951B7513941B941B951B941B94138D
:10282000751B941B9513941B951B951B951B951B52
:10283000951B951B951B9513951B95139513941B31
:10284000B51B951B951BB51B941B9413941B741BF4
:10285000741B741B741B7413941B941B941B941B88
:102860009513951B951BB51BB51B951BB51BB51378
:10287000B51B951BB51B951BB51B9513B51BB51B40
:10288000B51BB51BB51BB613B51BB51B961B951B0E
:10289000B51BB51B951B9513951B951B941B951B81
:1028A000B41B951B9513941B941B9513941B941B9D
:1028B000951B941B941B951BB51B951B941B951B7B
:1028C0009413951B951B9413951B951BB513B51B62
:1028D000951BB513B51B941BB51BB51B9513B51BE9
:1028E0009513951BB51B9513951BB51B9513951B40
:1028F000951BB5139513B41B95139513951B951B39
:1029000094139513941B941B941B7413951B94138D
:10291000741B9513741B9413941B941B941394139E
:10292000741B75137513741374137413751B74135C
:1029300074135413741374135413541354137413DF
:1029400074135413541374137413541374135413CF
:1029500074137413540B7413540B7413540B5413D7
:10296000540B540B540B340B330B540B540B540BB0
:10297000540B540B550B540B540B540B540B540366
:10298000540B540B3403540B540B5403540B3403A7
:1029900054033403540B54033403540B3403340BE7
:1029A000330B3303340B34031303340B330314039B
:1029B000330B3403340B3403540B34033403330B21
:1029C0003403340B33033403340B33033403340B39
:1029D00033033403340B330B3303330B340B330324
:1029E0001303140B330333031303340B3303330B7D
:1029F000340B540B3303540B540B540B3403540B50
:102A0000540B540B540B540B540B740B540B540BAE
:102A1000740B5413740B740B54135413540B74131E
:102A2000740B7413740B540B74135413540B7413EE
:102A3000541374135413741374137413741374139E
:102A4000741375137413741374137513941374132C
:102A500075139513741375139413941B95137413B2
:102A6000941B75139413741B951B7413741B7413AC
:102A7000741B941B9413751B941B9413751B741374
:102A80009413951B9413741B9513941B951B94130B
:102A9000951B941B951B7413951B751B941B951B01
:102AA000941B941B951B951B951B951B9513941BB1
:102AB000951B9413941B951BB51B951B951B951B80
:102AC000951B9513941B941B941B941B951B941B93
:102AD000941B9413951B741B951B941B941B741BC4
:102AE000941B741B941B941B9513951B951B951B92
:102AF000B51BB51B951BB51BB51BB61B951BB5139D
:102B0000B51B951BB51B951BB51BB61BB513B51B8C
:102B1000B51BB51B951B951BB41B951B951B951BD6
:102B2000B51B9413951BB41B941B9513941B941BFA
:102B30009513B51B9413951B951B9413951B951B0F
:102B4000951B9413951B941B9413941B941B951322
:102B5000B41B951B9513B51B951BB513941BB51B87
:102B6000951B951BB413951B9513B41BB51B95139F
:102B7000941B951B951B9513B51B951B951B941BBF
:102B8000941B941B9413951B7513941B951B751321
:102B9000941B741B9513751B75137413741B941B72
:102BA0009413741B7413741B741B74137413741BAD
:102BB000541374135413741374135413741374133D
:102BC000741374137413541354137413741354132D
:102BD00054135413540B740B7413540B5413740B7D
:102BE00054135413540B541334135413340B540B05
:102BF000540B740B740B540B540B540B540B540B9D
:102C0000540B5403340B540B3403540B5403340B44
:102C10003403540B34035403540B340B3403330B7D
:102C2000330334031403330B3303340B140B330318
:102C30003403330B34033403340B340334033303CE
:102C4000340B3403330B34033403330B3403330BAF
:102C500034033403330B34033403330B33031303D0
:102C6000330B1403330B1303340B330B34033403D0
:102C7000340B3303540B540B540B540B540B540BA5
:102C8000540B540B540B540B540B740B540B540B2C
:102C9000540B540B7413540B7413740B5413740BA4
:102CA000740B54137413740B74135413741374133C
:102CB000540B7413741374137413741375139413E3
:102CC00074139413751374137413741374137413AB
:102CD0007413941B9413741395137413751B94132A
:102CE0009413751B74139413941B741B741B741B23
:102CF0007413741B941B7413751B951B741B951B09
:102D00009413951B951B9513941B741B951B751B96
:102D1000941B941B951B941B941B951B941B951B38
:102D2000951B941B951B951B941B951B951B941B26
:102D3000951BB513951B941BB41B951BB51BB513A5
:102D4000951B951B941B941B9513941B951B951B0E
:102D5000941B751B941B941B951B951B9413951B1F
:102D6000941B941B951B941B951B941B951B951BE7
:102D7000951B951B9513B51B951BB51BB51BB51B5B
:102D8000951BB51BB613B51B951BB51BB51B951B2A
:102D9000951B9513951BB51B941B951BB413941B86
:102DA000951B941B951B941B951B951B941B941BA7
:102DB000951B951BB41B951B941B9513941B951B7E
:102DC000941B951B951B951B941B951B941B941B87
:102DD000951B941B951BB51B9513951BB51BB51B1C
:102DE000B51B9513B51BB51B9513951BB51B9513FB
:102DF000B513B51B951B951B9513941B9413951335
:102E0000941B951B9513741B941B9413941B951B77
:102E100095137413941B741B9513751B75139513DD
:102E20007513751B74137413751B74135413741377
:102E3000741B7413541B541374137413741374138A
:102E40005413741374135413541374135413740BD2
:102E500054137413741354137413740B740B74138A
:102E6000540B540B5413540B530B33135413540B74
:102E7000540B540B740B540B550B740B540B540B19
:102E80005403540B540B5403540B540B5403540B62
:102E9000540B34035403340B340B34033303330B1C
:102EA000330B1403330B330334031303330B340397
:102EB0003303340B34033403330B34033403330B45
:102EC00034033303340B34033303340B340333033D
:102ED000340B3303330B3403330B330B340313033F
:102EE000330B33031303340B3303330B3303540B10
:102EF000330B340B330B5403340B540B540B540B64
:102F0000540B540B540B540B540B540B740B5413A1
:102F10007413740B540B5413740B7413740B7413D9
:102F20005413541354135413750B54137413541330
:102F30005413741374135413741374137513741398
:102F400075139413741374139513741394137513E6
:102F50009413741B7513741B94137513741B9513BE
:102F60007413941B751B9513741B74137413741BC7
:102F70007413741B9413751B94139413951B941B57
:102F80009513951B941B9513951B941B9413951BDC
:102F9000741B9513751B941B951B9413951B951B04
:102FA0009513941B951B9513941B951BB41B951B94
:102FB000951B951BB51B951B9513951B951B951B79
:102FC000B41B951B941B941B951B941B941B94136F
:102FD000951B941B941B941B941B941B941B951B77
:102FE000941B9413951B941B941B941B941B941378
:102FF000941B941B951B951B951B9513B51B951B3B
:10300000B51BB51BB51BB61BB51BB513951B951B87
:10301000951B951BB41BB51B951BB51BB41BB51B92
:10302000951B941B941B951B941B941B951B951B24
:10303000941B951B9413B51B951B941B9513951B03
:10304000941B9513951B941B9513951B941B94131C
:10305000951B941B941B9513941BB51B9513951BE3
:10306000B51B951B951BB51BB51B951BB513951B68
:10307000951B9513951B9413951B941B941B9513EB
:10308000941B951B9513941B951B74137513941B1C
:10309000951B7513741B9413951B941B9413741B2D
:1030A0009413741B741374137413741B74135513D7
:1030B0007413541374135413541374137413741338
:1030C0005413741374137413741354137413541328
:1030D0007413740B540B54135413540B5413540B98
:1030E000540B54135313540B330B5413540B330B13
:1030F000540B540B540B740B540B540B540B540BB8
:10310000540B540B540B540B5403340B54035403FF
:10311000540B54033403340B34033303330B3303A2
:10312000140B34033303340B14033303340B130332
:103130003303340B3403340B540334033403340BA0
:1031400033033403340B3303330B34033403330BB3
:10315000330B340B3303330B13031303340B1303FD
:103160001303340B13031303340B3303340B340BEB
:10317000530B340B340B5303540B340B530B540BC2
:10318000540B540B540B540B740B540B540B740B07
:103190005413740B540B7413540B740B54135413B7
:1031A000740B740B541374137413540B741374133F
:1031B0005413541354135413741374139413751336
:1031C0007413751374139413741375137413941385
:1031D000951B94137413951B941B7413951B7413F4
:1031E000951B941B95137413741B741B7413741B1D
:1031F000741B7413951B741B741B951B951B941BDC
:103200009413951B941B9513951B941B951B941B52
:103210009513951B941B9513951B951B941B941B41
:10322000951B951B951B951B951B9513951B95132E
:10323000941B951B951BB41B951B951B951B941BF1
:10324000941B9413941B951B941B941B951B941B0C
:10325000941B951B951B9513941B941B951B941BFA
:10326000951B941B951B951B9513951B951B941BE8
:10327000951B951B941B941B941B951B951B951BD1
:103280009513951B951BB51BB51BB51B951B951B66
:10329000B51B941B951B9413B51B951B951B951B78
:1032A000941BB513951B941B941B9413941B941B94
:1032B000941B951B951B941B951B951B941B951B91
:1032C000951B941B941B9413951B941B951B951392
:1032D000941B941B951B941B941B951B941BB5135B
:1032E000B51B9513B41B951B9513B51BB41B9513F8
:1032F000951B941B941B941B941B951B951B941B53
:103300009413941B751B9413941B951B9513941B7A
:10331000941B75139513741B75139413741B751BF1
:1033200094137413751B7413741B74137413741B2C
:1033300074137513741B74137413741B5413741364
:103340007413741374137413541374137413541385
:1033500074135413740B7413740B54137413741385
:1033600054135413540B54135413530B540B33135F
:103370003313340B540B740B740B550B540B540B4D
:10338000540B540B5403540B540B3403540B540B75
:103390003403540B540B3303330B330B3303140339
:1033A0003403330B3303140B330B34033403330B69
:1033B00013033403340B34033403340B3303340367
:1033C000340B33033403340B3303340B340B330328
:1033D0003403330B3403130313033403330B13038A
:1033E0003403330B1303330B340B340B3403330329
:1033F000340B340B330B340B330B540B540B540B77
:10340000540B540B530B540B540B7413540B740B7D
:103410005413540B54137413540B54137413540B4C
:1034200074137513740B54137413541374137413AB
:10343000740B74135413541374137413941374137C
:10344000741374137513741394137413941B7413FB
:10345000751394137413951374139413951B741BA1
:1034600094139513741B7413741B741B7413741BC3
:10347000741B741B741B741B951B94139513741B82
:10348000951B951B9413951B951B9413751B941BEF
:10349000941B951B941B951B941B941B951B951BB0
:1034A000951B941B9513B51B941B941BB51B951B67
:1034B0009413B51B951BB51BB51B951B9413941B3F
:1034C000941B941B951B941B9413951B951B941B89
:1034D000941B941B941B951B941B951B9413951B79
:1034E000951B941B941B951B941B941B951B951B60
:1034F000941B951B9513951B941B951B941B951B57
:10350000951B941B941B951B951B951B951B951B3D
:10351000B513B51B951B951B951BB41B9513941BDD
:10352000951B951B941B941B951B951B941B951326
:10353000951B941B941B951B9513941B951B941B17
:10354000951B941B951B951B941B951B941B951BFE
:10355000951B951B951B941B941B941B941B941BF0
:10356000941B941BB513B51B951B951B941B941BA7
:10357000941B951B9513951B941B9513951B941BDE
:10358000951B951B9513941B751B9513941B751B0D
:103590009413941B951B9413751B951B741395130F
:1035A000751B741B7413751B741B74137413741BB9
:1035B000741B5413741374137513741B74137413E2
:1035C00074135413741374137413741374137413E3
:1035D000740B741374137413540B7413740B540B13
:1035E0005413540B54135413530B540B5413340BE4
:1035F0005413340B330B540B540B740B550B540BEB
:10360000540B540B5403540B540B5403540B540BD2
:103610005403340B330B33033403330B1303340BD6
:103620003303330314033303330B34031403330B17
:10363000330B34033403340B340334033403330BBC
:103640003403330B3403340333033303340B3303B6
:10365000330B34031303330B330B1303130B3303F9
:10366000130B1303330B33033303330B340B330BC1
:103670005403340B330B340B340B530B540B540BDC
:10368000540B540B540B740B540B74135413740BD2
:10369000740B5413540B740B7413540B7413741372
:1036A000551374135413740B741354135413741369
:1036B00074135313741374137413741374137513F2
:1036C0009413941374137513741374139513741B58
:1036D0009513741B95137413751B941B7413751B2E
:1036E000941B7413741B741B741B7413741B74135A
:1036F0007413741B7413741B951B941B9413951BE8
:10370000951B94139513941B951B951B951B941B4C
:10371000951B941B951B951B941B951B9513951B33
:10372000951B941BB51B951B951BB51B951B951BDA
:10373000B51B951B951B9513941B941B941B941BF5
:10374000951B951B941B941B951B941B9413951B05
:10375000951B9413941B941B951B941B941B951BF6
:10376000941B9513941B941B951B941B941B9513EE
:10377000941B941B951B951B951B9413951BB41BB5
:10378000951B941B941B741B951B951B951BB41BBD
:10379000B51B951B941B951B951B951BB41B951B6B
:1037A000941B941B951B951B941B951B951B941B9D
:1037B000941B951B941B951B951B941B951B951394
:1037C000941B951B951B951B951B941B941B941B7D
:1037D0009513941B941B9513951B941B951B951B7C
:1037E000941B951B941B9413951B941B951B951B65
:1037F000941B9413951B941B9413951B941B941367
:10380000951B941B951B951B9413951B751B94136B
:10381000951B951B941B94137513941B941B751384
:10382000741B74137413741B75137413741B751346
:103830007413741B74137413741374137413541368
:1038400074137413541374135413741374135413A0
:103850007413740B5413751354135413740B5413BF
:103860005413540B53135413340B5313540B54135A
:10387000330B540B340B540B540B540B540B540B91
:10388000540B540B540B540B540B540B3403540B68
:10389000340B3403330B3403340B13033403340B72
:1038A000330B1403340B34033303130B340334038B
:1038B000330B34033403340B540B34033403340319
:1038C000330B3403330B340B3303340B3403330B1C
:1038D000330B13031303340B330314033303340B7D
:1038E0001303340B340B3303330B340B340B330B14
:1038F000340B540B330B3403540B330B540B540B5A
:10390000530B540B540B5413740B540B540B741370
:10391000740B5413740B54137413540B540B74130F
:10392000540B7413741354137413541374137413C7
:1039300054135413741354135413741374137513CE
:1039400074137413741394137513941B94137413D6
:10395000941B9513741B9413951B74139413951B4C
:10396000741B741B7413741B7413741B741B741BEF
:10397000741B7413741B941B9513951B941B941345
:10398000951B951B941B9513941B951B941B951BC2
:10399000951B951B941B951B951B941B941B951BAA
:1039A000951BB513941B951B951B941B9513941B8A
:1039B000951B951B951B941B941B941B951B951B8A
:1039C0009413941B951B9413951B941B941B941B8D
:1039D000951B951B941B951B941B941B951B941B6B
:1039E000951B951B941B951B951B941B951B941B5A
:1039F000951B941B941B951BB41B951B951B951B2A
:103A0000941B951B741B741B941B9513B51B941B63
:103A1000951BB51BB41BB513B51B951B951B951BAF
:103A20009513941BB51B9413941B951BB41B941BEB
:103A3000951B9413941B951BB51B941B951BB51BD1
:103A4000941B9413941B941B9513951B9413951B13
:103A5000951B941B951B951B941B951B9513941BF1
:103A6000941B941B741B941B941B951B9413951B04
:103A7000941B951B941B951B951B941B951B9413D2
:103A8000941B951B9413951B941B951B9413941BCB
:103A90009513751B941B951B9513941B7413951B01
:103AA0007413741B741B7413741B74137513741BBD
:103AB00074137413751B741B74137413741B7513B4
:103AC00074137513741354137513751374137513DA
:103AD000741354137413740B54137413540B54133E
:103AE0005413540B5313540B340B5413530B5313E1
:103AF000540B5313530B540B540B340B540B740BC8
:103B0000540B740B540B540B540B540B540B340BBD
:103B1000340B330B3303330B330B340B33033403CA
:103B20001303330B3403330B1403330B330334030A
:103B3000130B34033403340B340334033303340BD7
:103B400034033303340B330B3403330B33031303CA
:103B50003403130B33031303140B3303130B13033B
:103B60003303330B3303140B330B340334033303AA
:103B7000340B340B530B540B540B330B340B540BCF
:103B8000540B540B740B5413540B740B5413540BED
:103B9000540B5413740B5413740B74137513741364
:103BA0007413540B54137413540B7413531374136E
:103BB000541374135413541374137413741374132D
:103BC000741375137413941B7413951B751374136A
:103BD0007413951B7413741B9513741B9513941B0A
:103BE0007413741B741B7413741B741B741B741375
:103BF000741B941B941B741B941B951B951B941393
:103C0000951B951B951B941B9513951B941B951346
:103C1000951B941B9513951B941B951B951B941B2F
:103C2000951B951B951BB41B951B951BB51B951BD5
:103C3000B51B9413941B941B941B9513941B941BFA
:103C4000941B951B941B941B951B941B951B941BF9
:103C5000941B941B9513941B941B951B951B951BF0
:103C6000941B941B951B951B941B951B941B951BD8
:103C7000951B951B9513B51BB51B941B941B941B8F
:103C8000941B941B751B941B941B951BB51BB51B98
:103C9000951B951B951BB41BB41B951B941BB41B48
:103CA000951B941B951B951B941B9513951B941B9F
:103CB000951B941B941B9513951B951B9413941B98
:103CC000951B951BB51B941B941B951B951B941B57
:103CD000951B951B941B941B951B941B941B951B68
:103CE000951B941B741B741B741B941B951B941BBA
:103CF000941B941B951B951B9513941B951B951B4F
:103D0000951B95139413951B9513941B951B951B4D
:103D1000941B7513951B941B751B9513741B94139F
:103D2000741B75137513741B741B74137413741B39
:103D300074137413741B74137413741B741374133B
:103D4000541B741375137413741374137413741352
:103D500075137413740B74137513540B7413541379
:103D6000541354135413541354135313340B540B4C
:103D70005413540B540B330B330B530B540B540B86
:103D8000740B540B5503540B540B5503540B340351
:103D9000330B340B330B3403340B33031303340B67
:103DA00034033303330B14033403340B330314038E
:103DB000330B34033403540B340333033403330B16
:103DC0003303340B33033403330B1303130B330369
:103DD0001403330B33031303330B33031403330B79
:103DE000330B3303340B3303330B340B340B530BD0
:103DF000340B530B340B530B340B530B530B540B2F
:103E000054135413540B740B5413540B5413540B7A
:103E100054137413540B54137413540B74137413FA
:103E200054137413741374135413741354135413DA
:103E3000741374137413541374137413741394134A
:103E400074139513941B741375139413741B9513A7
:103E50009413741B9513741B941B9513741B741B80
:103E60007413741B741B741B741B741B7413941BCA
:103E7000941B741B9413741B7413951B951B941B38
:103E80009513941B951B951B951B951B941B951BBC
:103E9000941B941B951B951B9513B51B951BB51374
:103EA000941B951B951BB513941B951BB513B51B44
:103EB000941B941B951B951B941B941B951B941B87
:103EC000951B941B941B951B941B941B9513941B7F
:103ED000941B951B941B951B951B941B941B951B66
:103EE000941B941B951B9413941B951B941B951B5F
:103EF000941B941B951B941B941B941B941B941B49
:103F0000741B941B941B941B941B941B941BB51B38
:103F10009413951BB51B951B951B941B951BB51BEB
:103F2000941B941B951B941B941B941B951B941B17
:103F30009413951B941B941B951B951B951B951B0C
:103F4000951B951B941B951B951B941B941B951BF4
:103F50009513941BB513941B951B941B941B9513DD
:103F6000941B941B7413741B741B741B941B941B61
:103F70009413941B941B941B9413951B951B951BD6
:103F8000951B941B951B951B941B9513951B9513C3
:103F9000941B95139413941B9413951B741B751306
:103FA000741B7413941B74137513741B741B751397
:103FB0007513741B74137413751B741374137413B7
:103FC000741B5413741374137413741375137413D0
:103FD000741375137413741374137413540B5413F0
:103FE0005413540B5313530B54135413540B540BBB
:103FF000540B5413540B540B540B540B340B540BE1
:10400000540B540B740B540B540B540B340B330BD9
:10401000340B330B340B330334031403330B340BE3
:1040200014033303340B33033303140B3303340B04
:104030003303340B34033403530B3403340333039B
:10404000340B340B3303330B33031403330B3303BD
:10405000130B1403330B1403130B33031403330B2D
:104060003303140B340B3303330B340B330B330B8D
:10407000340B540B330B340B540B540B540B530BAA
:104080005313540B540B5413540B540B74137413D9
:10409000540B740B74135413540B54137413740B88
:1040A0005413741374137413531374137413541339
:1040B0005413741374137413741B74137413741BD8
:1040C00074137413951394137413741B9413751B46
:1040D0009413941B7513941B941B7413741B741BFF
:1040E00074137413741B741B7413741B941B941B30
:1040F000741B7413951B941B941B9413951B95139D
:10410000941B951B95139513941B951B951B951B41
:10411000951B941B951B941B951B951B941B951B22
:10412000B51B941B951B951BB51B951B941B941BD2
:10413000941B951B941B941B951B941B941B951B04
:104140009413941B951B9413941B951B941B951B04
:10415000941B941B951B941B9513941B951B9513F3
:10416000941B951B951B941B951B941B951B951BD2
:10417000951BB41B951B951B941B951B751B941BC2
:10418000951B951B941B941B951B941B951B951BB2
:10419000B51BB41B951BB51BB51B941B951B951329
:1041A000951B941B951B951B941B951B951B941B92
:1041B000941B951B941B941B951BB41B951B941B64
:1041C000B41B9513941B951B9513941B941BB51B43
:1041D000941B941B951B951B9413951B951B941B6B
:1041E000941B741B741B741B741B741B9413751B1E
:1041F000951B941B941B941B941B951B941B94134D
:10420000951B941B951B951B941B951B941B941B32
:10421000951B951B951B751B9513941B741B741B89
:104220007413741B741B7513741B7413751B741334
:10423000741B74137413741B7413741B741375132D
:1042400074137413741B751374137413751374132C
:1042500074137413551354137413740B54135413AD
:10426000540B54135413530B540B54135313540B38
:1042700053135413530B54135413530B530B540B2A
:10428000540B540B540B540B540B540B340B330B77
:10429000330B3403330B330B3403330B330334034B
:1042A000130B33033403140B33033303340B330383
:1042B0003403340B33033403340B3403340B330330
:1042C000330B3403340B330B130333031403330B5B
:1042D00013033303330B14033303130B1303330B95
:1042E0003303340B130B340B3303340B3403340B11
:1042F000540B330B540B540B530B540B3413540B00
:10430000530B5313540B5413740B5413740B740B3F
:104310005413540B74137413750B741354135413F4
:10432000740B7413541374135413541374137313BE
:104330005413541353137413741B74137413741B96
:1043400075139413741B951B7513941395137413A1
:10435000951B7413951B9513741B741B7413741B9A
:10436000741B7413741B74137413941B7413741BD5
:10437000951B741B741B951B741B941B951B951B21
:10438000951B941B951B951B9513941B951B9413C0
:10439000951B951B9513B51B941B9413951B951B8F
:1043A000B51B9513951BB51BB51B941B951B941B37
:1043B0009413951B941B9413951B941B941B951B92
:1043C000941B951B941B951B941B941B951B941B72
:1043D000951B941B951B941B941B951B941B941B62
:1043E000951B941B941B951B951B941B951BB51B30
:1043F0009413951B941B941B941B741B951B941B6B
:10440000941B941B951B951B941B941B951BB51B10
:10441000951B951BB41B951BB413951B941BB51BC7
:10442000941B951B941B951B9413951B941B941B19
:10443000951B941B951B951B951B9413951BB51BE6
:10444000941B951BB51B941B951B951B951B951BCE
:104450009413941B951B941B941B951B941B941BEA
:10446000741B941B941B741B741B741B941B941B54
:10447000741B741B951B741B741B941B941B951B42
:10448000951B941B95139413951B951B9513941BC7
:10449000951B941B941B951B94137413751B941BF1
:1044A00075137513941B741B7413741B9413741B72
:1044B000741B95137413741B74137413741B741B83
:1044C00074137413741374137413751374137413B3
:1044D00074137413740B75137513741354135413EA
:1044E0005413541354135413530B5413540B5413A5
:1044F000540B540B540B540B340B540B540B340B04
:10450000530B340B540B540B540B340B340B340B34
:10451000530B3403340B340B3303340B330B34039E
:104520003303340B1303340B34031303340B3303FF
:104530003303340B5403340B340333033303340B8E
:104540003303130313033303130B1303340B13034A
:104550003303140B13033303330B1403330B3403F0
:10456000340B3303330B330B340B540B330B540B1F
:10457000330B540B340B330B530B54133313540BB7
:10458000540B54135313540B540B54137413540BF4
:1045900074135413740B54135413740B7413541373
:1045A0007413741354135413741354137413741333
:1045B0007413541374137413741B741374137413DB
:1045C000741B9513941B7413741B951B7413741B29
:1045D000951B941B941B7413741B741B7413741B12
:1045E000741B741B741B741B941B941B741B9413FB
:1045F000941B741B941B7413941B741B941B941BAB
:104600009513951B951B951B951B951B941B951B33
:10461000941B941B951B951BB51B951BB51B951BDC
:10462000B51BB51B951B9513941B941B9513941BDD
:10463000941B951B941B951B941B951B9413941B07
:10464000951B941B941B951B951B941B941B951BEE
:10465000941B9513951B941B951B951B941B951BE5
:10466000951B941B941B951B951B941BB51B941BAE
:10467000941B951B941B941B951B941B941B951BBF
:10468000941B941B941B941B941B941B941BB51B91
:10469000951BB51BB51B941B951B951B951BB41B3C
:1046A000951B941B951B941B951B941B941B951B8E
:1046B000941B941B9413941B951B941B951B951B87
:1046C000941B951B951BB41B941B951B951B941B4E
:1046D000951B951B941B951BB51B941B941B941B3E
:1046E000741B741B741B941B741B741B741B941B12
:1046F000741B9513941B741B9513741B741B941BD0
:104700009413941B941B951B941B9513951B951345
:10471000941B95139513951B951B741B7413751B94
:10472000941B741B74139513741B75139413741BCF
:104730007513741B741B75137413741B7513741326
:10474000741B741374137513751374137413751326
:104750007413741374137513740B74135413541368
:104760005313540B5413541354135413540B530B2B
:104770005413540B5313540B540B540B3413540B4A
:10478000330B330B330B330B330B330B340B540B17
:10479000540B540B340B33033403330B340B13031C
:1047A0003403340B33033303340B3403330B34033C
:1047B000330B34033403530B3403340B330B340304
:1047C0001303330B33031403330B33031303330B80
:1047D0001403330B13031303340B330B3303340B66
:1047E000330B3303340B340B5303540B540B340B84
:1047F000540B530B540B540B540B540B530B5413BB
:104800005413530B5413540B54137413540B741349
:104810005413740B74135413541374135413540B10
:1048200074137413531374137413541374135413B1
:104830005413741B74137413741B741B7413741348
:1048400094139513741374139513941B751B94137D
:10485000941B9513741B741B74137413741B741BB7
:104860007413941B941B741B941B751B741B941B57
:10487000751B941B9413751B741B9413741B941B4E
:10488000951B9513941B941B951B941B951B951BB3
:104890009513B51B951B941BB51BB51B941BB5132A
:1048A000951B941B941B941B941B941B951B941B8E
:1048B000941B951B941B941B951B941B951B941B7D
:1048C000951B941B941B941B951B941B951B951B6C
:1048D000941B941B951B941B951B941B941B951B5D
:1048E000951B941B951BB51B941B951B941B941B2C
:1048F000951B941B951B941B951B941B941B951B3C
:10490000951B941B951B951B941B941B951B951B2A
:10491000B51B941BB51B951B941BB51B951B941BBA
:10492000941B951B951B941B951B951B941B951B0A
:10493000941B951B951B941B941BB51B951BB41BBB
:10494000951B9513B41B951B9513941B941BB513C2
:10495000941B951B941B9513941B941B741B741B25
:10496000941B941B741B941B941B741B7413941B37
:10497000741B941B941B941B941B751B941B741B1E
:10498000741B741B741B941B941B941B941B951B0E
:10499000951B941B941B741B751B7413941B951B04
:1049A0007413741B7413941B751B951B7413741B65
:1049B00094137413741B951B74137413741B741366
:1049C0007413741B7513741B74137413741375139D
:1049D00074137513741374137413541354137413DE
:1049E00054135313540B540B54135413540B5413A8
:1049F0005413540B540B54135313530B3313330BE3
:104A000033133313330B330B120B120B330B330BE8
:104A1000330B330B340B3403340B340B33033303BA
:104A2000340B13033403330B330334033303340BDA
:104A300034033403340B330354033403330B1303B1
:104A4000130B330B1403130B33031403330B130334
:104A50003303330B140333031303330B1303330BED
:104A6000340B330B330B3303340B330B330B340B5B
:104A7000530B340B330B540B540B5313540B530B7A
:104A80005413530B540B53135413540B740B5413F0
:104A90007413740B5413740B540B74137413541356
:104AA000741354135413741354137413541374134E
:104AB00054137413741B54137413741B7413741BE6
:104AC000941B7513741B951B941374137513941B0B
:104AD0009413741B7413741B741B7413741B741B56
:104AE000741B9413941B74139413941B741B9513CD
:104AF000741B741B951B941B941B751B941B941B9C
:104B0000951B951BB513951B951BB513941B951BF6
:104B1000951BB51B951B9513941B951B951B941BFF
:104B2000B51B941B941B951B941B951B941B941BEA
:104B30009513941B941B9513941B941B951B941B0A
:104B4000941B951B941B941B941B941B951B941BEB
:104B5000951B951B941B951B941B951B941B941BD9
:104B6000951B941B951BB51B951B941B941B951BA8
:104B7000941B941B751B941B941B951B941B941BDB
:104B8000941B951B941B941B951B941B941B941BAB
:104B9000951BB51B941B951B941B941B951B951B78
:104BA000941B951B941B941B951B941B941B941B8B
:104BB0009513941B951B941B951B941B9513B41B69
:104BC000951B951B941B951BB51B951B951B941B47
:104BD000951BB41B941B941B941B941B741B741B7C
:104BE000941B941B741B941B941B741B941B741BAD
:104BF000941B741B751B741B941B941B7513941BC3
:104C0000741B741B941B741B741B7413941B951BD3
:104C10007513951B951B94139513741B741B7513B7
:104C2000751B741B941B94137413741B741B7513E2
:104C3000741B94137513741B94137413941B7413C3
:104C400074137513741B7413741375137513741321
:104C5000741374137513741354135413541374137B
:104C6000541354137413740B53135413740B5413BD
:104C7000540B540B54135413330B330B330B330BB0
:104C8000330B3313330B130B120B120B120B130BCF
:104C9000130B330B330B340B3303340B3403330B51
:104CA00034033303140B340B3303330B3403330358
:104CB000340B3403340B3403340B34033303130346
:104CC000330333031303330B1403330B13031403A2
:104CD000330B1303340B330B340B34033303340B18
:104CE0003303340B330B330B330B330B330B540BBA
:104CF000330B540B540B530B33135413540B5413E7
:104D00005413540B54135413531354137413741334
:104D1000750B7413541374137413741354137413A2
:104D20007413541374135313741354137413741BA4
:104D300073137413741B5313741374137413741B4D
:104D400074139513941B741B7513941B941B951B60
:104D5000741B7413741B741B7413741B941B741BCB
:104D6000941B741B751B951B741B741B951B941350
:104D7000741B741B941B941B941B951B741B941322
:104D8000951B951B951BB513951B941BB51B951B6C
:104D9000951B941B951BB51BB51B951B951B951B54
:104DA0009413951B941B941B9513941B941B951B98
:104DB000951B941B941B951B941B951B941B941B78
:104DC000951B951B951B951B951B9413951B951B6C
:104DD000941B941B951B951B941B951B951B951B56
:104DE000951B951BB51B951B941B941B941B951B26
:104DF000941B941B951B941B941B951B951B941B38
:104E0000941B951B941B941B951B941B941B951B27
:104E1000B51BB51B951B951BB51B951BB41B941B94
:104E2000951BB41B951B941BB51B951B941B951BC5
:104E3000941B941B951B951B941B941B941B951BF7
:104E4000B51B941B951BB41B941B951BB51B941B86
:104E5000951B951BB51B941B741B741B941B741B17
:104E6000741B941B741B741B941B741B941B941B4A
:104E7000741B741B9513741B741B941B741B941B61
:104E8000941B7413941B741B941B7413741B741B5A
:104E90007413941B951B951B741B951B951B741306
:104EA000741B9513941B751B9413941B9413951BDF
:104EB000741B94137413741B7413751B7513941B58
:104EC000741B741374137413751B74137413751398
:104ED00074137413751374135413741374137413B9
:104EE0007413741374135413540B54135413740B1A
:104EF000541353135313530B331334133313331308
:104F0000330B330B33131313130B3313120B120B1B
:104F1000120B320B330B330B330B330B3403340BC9
:104F2000340B330333033403340B3303340B3303B5
:104F30003303340B53033403540B540B1303330B5D
:104F400014031403330B33031303330B3403130B16
:104F50001303330313031303330B330B330B330BE1
:104F6000330B330B330B330B330B330B330B330B51
:104F7000330B330B330B3313330B330B3313530B11
:104F800053133313540B5413530B5313541354131D
:104F9000740B541374137413741354137413541341
:104FA000531374137413541374135413541374134A
:104FB0007413741B7413741B741B7413741B741399
:104FC000741395137413941B951B941B9513741BE6
:104FD000741B7413741B741B741B7413941B941331
:104FE000741B9413741B941B9413741B741B941BD9
:104FF000941B751B941B7413951B941B941B941B7F
:10500000941B951B9513951BB41B951B951B941313
:10501000B51B951B951BB41BB51B9513941BB41B9B
:10502000941B951B941B941B951B941B941B951B05
:10503000941B941B951B941B941B951B951B941BF5
:10504000941B941B951B941B951B941B941B951BE5
:10505000941B941B951B941B941B951B951B941BD5
:10506000B41B951B941B941B941B951B751B941BC5
:10507000951B941B951B941B941B951B941B941BB5
:10508000951B941B941B951B941B951B941B941BA5
:10509000951BB41B951B951B941BB51B951B941B53
:1050A000951BB51B941B951B941B941B951B951B63
:1050B000941B941B951B941B941B951B941B951B75
:1050C000B51B941B951B951B941B941BB41B951B24
:1050D0009413941B941B941B741B941B941B741BA0
:1050E000941B941B741B941B741B741B941B741BC8
:1050F000941B941B941B941B751B751B941B741B96
:10510000741B951B741B941B741B741B941B741BC6
:10511000741B941B7413741B941B741B9413741BC7
:10512000741B9513751B741B75139413741B7413E4
:10513000751B741B741B9513741B741B74137413ED
:10514000751B74137413751B741374137413751314
:105150007413751375137413741354135413541375
:1051600074137413540B7413540B54137313530BA1
:1051700053135313330B33133313540B33133313AE
:105180003313330B330B3313330B120B130B130B80
:10519000120B330B120B130B130B130B330B3303C9
:1051A000330B340B340334033303340B3303340B2A
:1051B00034033403340B34033303330B1303340B42
:1051C000330B1303140B34031303130B3303130BAD
:1051D000130B130B3303130B130B130B130B130BC7
:1051E000130B330B130B130B130B130B330B130B8F
:1051F0001313330B3313330B331333133313330BB7
:105200003313331333133313330B54133313531335
:105210005313531354135413541354137413741318
:1052200054137413741374137413741B731374135F
:10523000741B5413741374137413541B741B741B56
:10524000741B741B951374139513941B75137413AB
:10525000741B741B7413741B941B7413941B751BA5
:10526000941B941B7413741B951B941B941B751B2C
:10527000941B941B751B741B941B941B951B941BF4
:10528000941B951B951BB51BB51BB51BB51B941B20
:10529000951B9513B41B951B951B941B941B941B7A
:1052A000941B951B941B941B951B941B9413951B8B
:1052B000941B941B9513951B941B941B951B941B7B
:1052C000941B951B941B941B951B951B941B951B62
:1052D000951B951B951B951B941BB513941B951B38
:1052E000951B941B941B941B951B941B941B951B43
:1052F000941B941B951B941B941B951B941B941B34
:10530000951B941B951B941B941B951B9413941B2A
:10531000951B941BB41B951B951BB51B951B941BD0
:10532000951B941B941B941B951B941B941B951B02
:10533000951B941B951B941B941B951B941B951BF1
:10534000B51B941B951BB51B951B941B951BB51B7F
:10535000941B941B941B741B941B741B741B941B35
:10536000741B741B941B941B741B941B741B741B65
:10537000941B741B741B941B9413941B741B941325
:10538000951B741B941B9413751B941B941B741B0B
:10539000741B7413741B741B7413741B741B741BA5
:1053A000741B741B741B741B741B751B941B94134C
:1053B0007513951B741375139413741B9413741342
:1053C0007513941B7413751B74137413741B75136A
:1053D00074137413751354137413741354137413D4
:1053E0007413540B54135413531354135313331390
:1053F0003413530B34135313330B3313530B331333
:10540000330B3313330B130B1213120B330B330BFE
:10541000320B130B130B120B120B130B120B130B80
:10542000130B130B330B3303330B34033403340BE1
:1054300034035403330B340B3303130313033303C9
:105440003403130B33033303130B3303130B130313
:105450001303130B330B130B130B1303130B330B2C
:10546000330B130B330B330B130B330B3313130BA4
:10547000330B3313130B1313330B330B331333135C
:10548000330B330B3313331354135313330B3313C3
:10549000331333133313531353135313531354133B
:1054A000741374137413741354137413741B7413DC
:1054B0005413741B7413541B7413741374137413E4
:1054C000741B951B7413741B951B741B741B741332
:1054D000741B741B7413941B7513741B941B741B23
:1054E000741B951B741B741B951B741B741B9513E9
:1054F000741B941B9413951B941B7413741B951BA2
:105500009413941B951BB51B951B941B951BB51BE6
:10551000951B951BB41B951B951B941B941B9513F6
:10552000951B941B941B951B951B941B941B951BFF
:10553000951B941B941B951B951B941B951B951BEE
:10554000951B951B941B951B941B951B941B941BDF
:10555000951BB41B951B951BB41B951B951BB41B6E
:10556000951B941B951B951B941B941B951B951BBE
:10557000941B941B951B941B951B941B941B951BB0
:10558000941B941B951B941B941B951B941B951BA0
:10559000951B951BB41BB51B951B941B941BB51B2E
:1055A000951B941BB51BB51B951BB51B941B941B1E
:1055B000951B941B941B951B941B941B941B951B70
:1055C000941B951BB41B951B951BB413951B951B26
:1055D000941B941B941B741B941B941B741B941B93
:1055E000941B741B741B941B941B741B941B941BA3
:1055F000741B741B941B741B741B941B751B941BD2
:10560000941B741B741B941B741B741B7413941BCA
:10561000741B741B941B741B741B9413741B741BDA
:105620007413941B9413741B741B7413741B941BBA
:10563000941B941B7413741B751B7513951B741B9F
:10564000741B75137413741B741375137413741310
:105650007513741374135413541374137413741351
:1056600074135413741353135313531354133313E6
:10567000531334135313330B341353133313340BA7
:10568000330B33133313130B33133313120B321344
:10569000130B320B330B120B320B120B120B120BC0
:1056A000130B130B130B1303330B34033303340BA0
:1056B00054035303340B330B1303130B1303130B58
:1056C0001303130B130B130B1303130B130B130BFA
:1056D0001303130B130B130B330B130B330B130BA2
:1056E000130B330B130B330B130B330B330B131342
:1056F000330B330B330B33133313330B3313341399
:10570000330B34133313530B331333133313331358
:10571000331332133213331333133313531353131B
:105720005313531354135413741B7413741B7413B3
:105730007413741B7413741B7413741B741B741311
:1057400074139413951B951B9413741B741B74137F
:10575000741B741B941B741B941B941B7413941361
:10576000951B741B941B941B741B941B941B941B00
:10577000951B941B941B941B951B941B941B941BAF
:10578000941B941B941B9513B51B951B9513B41B6D
:10579000951BB51B941B941B9413951B941B951B75
:1057A000941B941B9513941B941B951B941B951B86
:1057B000941B951B941B941B951B941B941B951B6E
:1057C000941B941B951B941BB51B951B951B941B3D
:1057D000B51B941B941BB51BB51B951B941B941BED
:1057E000941B941B941B951B941B941B951B941B3F
:1057F000941B951B941B941B951B941B951B941B2E
:10580000941B951B941B951B951B941B951B941B1C
:10581000941B951B951BB51BB41B951B951B941BCB
:10582000B51B941B951B941B941B951BB51B941BBC
:10583000941B951B941B941B951B941B941BB51BCD
:10584000951B941BB51B941B941BB51BB51B941B7C
:10585000941B741B941B741B741B941B741B741B70
:10586000941B941B741B741B941B741B741B941B40
:10587000941B741B941B941B741B741B9413741B38
:10588000741B941B751B941B941B741B951B941BFE
:10589000941B741B741B941B741B741B9413741B38
:1058A0007413741B741B7413741B741B7413741B98
:1058B000741B7413741B741B74137413741B95136F
:1058C00074137513951B7413751B74137413751B64
:1058D00075137513741374137413741374135413AE
:1058E0005313541353135313531353135413531386
:1058F00033135313541333133313340B331333133E
:10590000330B3313330B130B330B130B1313330BF7
:10591000120B130B330B130B130B130B130B130B78
:10592000120B1203130B120B130B33033303330B42
:105930003403330B33031303130B1303130B130B36
:1059400013031303130B1303130B130B1303130B87
:10595000130B130B3303130B130B130B130B130B3F
:10596000130B330B130B130B3313130B330B3313B7
:1059700033133313330B33133313330B3313331307
:1059800033133413331333133313331333133313E6
:105990003313331333133313331333135313531397
:1059A000531B53135313531B53135313531B5413AE
:1059B000741B741374137413741B741B7413741B8F
:1059C000741B741B9513741B74137413741B741B56
:1059D0007413941B941B7413741B941B741B941BDF
:1059E000751B74139413951B941B951B941B741BAC
:1059F000941B751B741B941B941B951B941B951B6C
:105A0000941B941B9513951BB51B951B951BB51BE0
:105A1000B51B941B941B951B941B941B941B941BEC
:105A2000951B941B941B951B941B951B9413941B03
:105A3000941B951B951B941B951B951BB41B941BCA
:105A4000B51BB41B951B941B951BB51B941B951B79
:105A5000951B951B941B951B941B941B941B951BCA
:105A6000951B941B941B951B941B941B951B941BBB
:105A7000941B951B941B941B951B941B941B951BAB
:105A8000941B951B951B941B941B951B941B951B9A
:105A9000941B951BB41B941B951B951B941B941B6B
:105AA000951B951B941BB41B941B9513941B951B62
:105AB000951B941B941B951B951B941B941B951B6A
:105AC000951BB51B9513951B941B941B951B941B41
:105AD000941B741B941B941B941B741B941B741BAE
